{
  "_format": "hh-sol-artifact-1",
  "contractName": "Marketplace",
  "sourceName": "src/backend/contracts/Marketplace.sol",
  "abi": [
    {
      "inputs": [
        {
          "internalType": "uint256",
          "name": "_feePercent",
          "type": "uint256"
        }
      ],
      "stateMutability": "nonpayable",
      "type": "constructor"
    },
    {
      "anonymous": false,
      "inputs": [
        {
          "indexed": false,
          "internalType": "uint256",
          "name": "itemId",
          "type": "uint256"
        },
        {
          "indexed": true,
          "internalType": "address",
          "name": "nft",
          "type": "address"
        },
        {
          "indexed": false,
          "internalType": "uint256",
          "name": "tokenId",
          "type": "uint256"
        },
        {
          "indexed": false,
          "internalType": "uint256",
          "name": "price",
          "type": "uint256"
        },
        {
          "indexed": true,
          "internalType": "address",
          "name": "seller",
          "type": "address"
        },
        {
          "indexed": true,
          "internalType": "address",
          "name": "buyer",
          "type": "address"
        }
      ],
      "name": "Bought",
      "type": "event"
    },
    {
      "anonymous": false,
      "inputs": [
        {
          "indexed": false,
          "internalType": "uint256",
          "name": "itemId",
          "type": "uint256"
        },
        {
          "indexed": true,
          "internalType": "address",
          "name": "nft",
          "type": "address"
        },
        {
          "indexed": false,
          "internalType": "uint256",
          "name": "tokenId",
          "type": "uint256"
        },
        {
          "indexed": false,
          "internalType": "uint256",
          "name": "price",
          "type": "uint256"
        },
        {
          "indexed": true,
          "internalType": "address",
          "name": "seller",
          "type": "address"
        }
      ],
      "name": "Offered",
      "type": "event"
    },
    {
      "inputs": [],
      "name": "feeAccount",
      "outputs": [
        {
          "internalType": "address payable",
          "name": "",
          "type": "address"
        }
      ],
      "stateMutability": "view",
      "type": "function"
    },
    {
      "inputs": [],
      "name": "feePercent",
      "outputs": [
        {
          "internalType": "uint256",
          "name": "",
          "type": "uint256"
        }
      ],
      "stateMutability": "view",
      "type": "function"
    },
    {
      "inputs": [
        {
          "internalType": "uint256",
          "name": "_itemId",
          "type": "uint256"
        }
      ],
      "name": "getTotalPrice",
      "outputs": [
        {
          "internalType": "uint256",
          "name": "",
          "type": "uint256"
        }
      ],
      "stateMutability": "view",
      "type": "function"
    },
    {
      "inputs": [],
      "name": "itemCount",
      "outputs": [
        {
          "internalType": "uint256",
          "name": "",
          "type": "uint256"
        }
      ],
      "stateMutability": "view",
      "type": "function"
    },
    {
      "inputs": [
        {
          "internalType": "uint256",
          "name": "",
          "type": "uint256"
        }
      ],
      "name": "items",
      "outputs": [
        {
          "internalType": "uint256",
          "name": "itemId",
          "type": "uint256"
        },
        {
          "internalType": "contract IERC721",
          "name": "nft",
          "type": "address"
        },
        {
          "internalType": "uint256",
          "name": "tokenId",
          "type": "uint256"
        },
        {
          "internalType": "uint256",
          "name": "price",
          "type": "uint256"
        },
        {
          "internalType": "address payable",
          "name": "seller",
          "type": "address"
        },
        {
          "internalType": "bool",
          "name": "sold",
          "type": "bool"
        }
      ],
      "stateMutability": "view",
      "type": "function"
    },
    {
      "inputs": [
        {
          "internalType": "contract IERC721",
          "name": "_nft",
          "type": "address"
        },
        {
          "internalType": "uint256",
          "name": "_tokenId",
          "type": "uint256"
        },
        {
          "internalType": "uint256",
          "name": "_price",
          "type": "uint256"
        }
      ],
      "name": "makeItem",
      "outputs": [],
      "stateMutability": "nonpayable",
      "type": "function"
    },
    {
      "inputs": [
        {
          "internalType": "uint256",
          "name": "_itemId",
          "type": "uint256"
        }
      ],
      "name": "purchaseItem",
      "outputs": [],
      "stateMutability": "payable",
      "type": "function"
    }
  ],
  "bytecode": "0x60c060405234801561001057600080fd5b5060405161126a38038061126a83398181016040528101906100329190610094565b60016000819055503373ffffffffffffffffffffffffffffffffffffffff1660808173ffffffffffffffffffffffffffffffffffffffff1660601b815250508060a08181525050506100de565b60008151905061008e816100c7565b92915050565b6000602082840312156100a657600080fd5b60006100b48482850161007f565b91505092915050565b6000819050919050565b6100d0816100bd565b81146100db57600080fd5b50565b60805160601c60a051611156610114600039600081816101e601526102970152600081816101bc015261050a01526111566000f3fe6080604052600436106100705760003560e01c8063bfb231d21161004e578063bfb231d2146100f6578063ca7dd37514610138578063d38ea5bf14610175578063fa00afc71461019157610070565b806365e17c9d146100755780636bfb0d01146100a05780637fd6f15c146100cb575b600080fd5b34801561008157600080fd5b5061008a6101ba565b6040516100979190610bb4565b60405180910390f35b3480156100ac57600080fd5b506100b56101de565b6040516100c29190610cc6565b60405180910390f35b3480156100d757600080fd5b506100e06101e4565b6040516100ed9190610cc6565b60405180910390f35b34801561010257600080fd5b5061011d60048036038101906101189190610a6e565b610208565b60405161012f96959493929190610ce1565b60405180910390f35b34801561014457600080fd5b5061015f600480360381019061015a9190610a6e565b610291565b60405161016c9190610cc6565b60405180910390f35b61018f600480360381019061018a9190610a6e565b6102f4565b005b34801561019d57600080fd5b506101b860048036038101906101b39190610a1f565b61070f565b005b7f000000000000000000000000000000000000000000000000000000000000000081565b60015481565b7f000000000000000000000000000000000000000000000000000000000000000081565b60026020528060005260406000206000915090508060000154908060010160009054906101000a900473ffffffffffffffffffffffffffffffffffffffff16908060020154908060030154908060040160009054906101000a900473ffffffffffffffffffffffffffffffffffffffff16908060040160149054906101000a900460ff16905086565b600060647f000000000000000000000000000000000000000000000000000000000000000060646102c29190610d8a565b60026000858152602001908152602001600020600301546102e39190610e11565b6102ed9190610de0565b9050919050565b6102fc61099b565b600061030782610291565b9050600060026000848152602001908152602001600020905060008311801561033257506001548311155b610371576040517f08c379a000000000000000000000000000000000000000000000000000000000815260040161036890610c46565b60405180910390fd5b813410156103b4576040517f08c379a00000000000000000000000000000000000000000000000000000000081526004016103ab90610c06565b60405180910390fd5b8060040160149054906101000a900460ff1615610406576040517f08c379a00000000000000000000000000000000000000000000000000000000081526004016103fd90610ca6565b60405180910390fd5b3373ffffffffffffffffffffffffffffffffffffffff168160040160009054906101000a900473ffffffffffffffffffffffffffffffffffffffff1673ffffffffffffffffffffffffffffffffffffffff161415610499576040517f08c379a000000000000000000000000000000000000000000000000000000000815260040161049090610c66565b60405180910390fd5b8060040160009054906101000a900473ffffffffffffffffffffffffffffffffffffffff1673ffffffffffffffffffffffffffffffffffffffff166108fc82600301549081150290604051600060405180830381858888f19350505050158015610507573d6000803e3d6000fd5b507f000000000000000000000000000000000000000000000000000000000000000073ffffffffffffffffffffffffffffffffffffffff166108fc8260030154846105529190610e6b565b9081150290604051600060405180830381858888f1935050505015801561057d573d6000803e3d6000fd5b5060018160040160146101000a81548160ff0219169083151502179055508060010160009054906101000a900473ffffffffffffffffffffffffffffffffffffffff1673ffffffffffffffffffffffffffffffffffffffff166323b872dd303384600201546040518463ffffffff1660e01b815260040161060093929190610bcf565b600060405180830381600087803b15801561061a57600080fd5b505af115801561062e573d6000803e3d6000fd5b505050503373ffffffffffffffffffffffffffffffffffffffff168160040160009054906101000a900473ffffffffffffffffffffffffffffffffffffffff1673ffffffffffffffffffffffffffffffffffffffff168260010160009054906101000a900473ffffffffffffffffffffffffffffffffffffffff1673ffffffffffffffffffffffffffffffffffffffff167f8b4c9c8a607d67b321582dd8461041b1dc2ceeca70c8b7f37f8e02095cf2e76d86856002015486600301546040516106fa93929190610d42565b60405180910390a4505061070c6109eb565b50565b61071761099b565b6000811161075a576040517f08c379a000000000000000000000000000000000000000000000000000000000815260040161075190610c26565b60405180910390fd5b6001600081548092919061076d90610f2f565b91905055508273ffffffffffffffffffffffffffffffffffffffff166323b872dd3330856040518463ffffffff1660e01b81526004016107af93929190610bcf565b600060405180830381600087803b1580156107c957600080fd5b505af11580156107dd573d6000803e3d6000fd5b505050506040518060c0016040528060015481526020018473ffffffffffffffffffffffffffffffffffffffff1681526020018381526020018281526020013373ffffffffffffffffffffffffffffffffffffffff168152602001600015158152506002600060015481526020019081526020016000206000820151816000015560208201518160010160006101000a81548173ffffffffffffffffffffffffffffffffffffffff021916908373ffffffffffffffffffffffffffffffffffffffff160217905550604082015181600201556060820151816003015560808201518160040160006101000a81548173ffffffffffffffffffffffffffffffffffffffff021916908373ffffffffffffffffffffffffffffffffffffffff16021790555060a08201518160040160146101000a81548160ff0219169083151502179055509050503373ffffffffffffffffffffffffffffffffffffffff168373ffffffffffffffffffffffffffffffffffffffff167f655a0cf9c8db81512be9a76dc1c5ae5380b8816ce6ad659cd61b715e2999d59a600154858560405161098693929190610d42565b60405180910390a36109966109eb565b505050565b600260005414156109e1576040517f08c379a00000000000000000000000000000000000000000000000000000000081526004016109d890610c86565b60405180910390fd5b6002600081905550565b6001600081905550565b600081359050610a04816110f2565b92915050565b600081359050610a1981611109565b92915050565b600080600060608486031215610a3457600080fd5b6000610a42868287016109f5565b9350506020610a5386828701610a0a565b9250506040610a6486828701610a0a565b9150509250925092565b600060208284031215610a8057600080fd5b6000610a8e84828501610a0a565b91505092915050565b610aa081610eb1565b82525050565b610aaf81610e9f565b82525050565b610abe81610ec3565b82525050565b610acd81610f0b565b82525050565b6000610ae0602d83610d79565b9150610aeb82610fd6565b604082019050919050565b6000610b03601f83610d79565b9150610b0e82611025565b602082019050919050565b6000610b26601183610d79565b9150610b318261104e565b602082019050919050565b6000610b49601883610d79565b9150610b5482611077565b602082019050919050565b6000610b6c601f83610d79565b9150610b77826110a0565b602082019050919050565b6000610b8f601183610d79565b9150610b9a826110c9565b602082019050919050565b610bae81610f01565b82525050565b6000602082019050610bc96000830184610a97565b92915050565b6000606082019050610be46000830186610aa6565b610bf16020830185610aa6565b610bfe6040830184610ba5565b949350505050565b60006020820190508181036000830152610c1f81610ad3565b9050919050565b60006020820190508181036000830152610c3f81610af6565b9050919050565b60006020820190508181036000830152610c5f81610b19565b9050919050565b60006020820190508181036000830152610c7f81610b3c565b9050919050565b60006020820190508181036000830152610c9f81610b5f565b9050919050565b60006020820190508181036000830152610cbf81610b82565b9050919050565b6000602082019050610cdb6000830184610ba5565b92915050565b600060c082019050610cf66000830189610ba5565b610d036020830188610ac4565b610d106040830187610ba5565b610d1d6060830186610ba5565b610d2a6080830185610a97565b610d3760a0830184610ab5565b979650505050505050565b6000606082019050610d576000830186610ba5565b610d646020830185610ba5565b610d716040830184610ba5565b949350505050565b600082825260208201905092915050565b6000610d9582610f01565b9150610da083610f01565b9250827fffffffffffffffffffffffffffffffffffffffffffffffffffffffffffffffff03821115610dd557610dd4610f78565b5b828201905092915050565b6000610deb82610f01565b9150610df683610f01565b925082610e0657610e05610fa7565b5b828204905092915050565b6000610e1c82610f01565b9150610e2783610f01565b9250817fffffffffffffffffffffffffffffffffffffffffffffffffffffffffffffffff0483118215151615610e6057610e5f610f78565b5b828202905092915050565b6000610e7682610f01565b9150610e8183610f01565b925082821015610e9457610e93610f78565b5b828203905092915050565b6000610eaa82610ee1565b9050919050565b6000610ebc82610ee1565b9050919050565b60008115159050919050565b6000610eda82610e9f565b9050919050565b600073ffffffffffffffffffffffffffffffffffffffff82169050919050565b6000819050919050565b6000610f1682610f1d565b9050919050565b6000610f2882610ee1565b9050919050565b6000610f3a82610f01565b91507fffffffffffffffffffffffffffffffffffffffffffffffffffffffffffffffff821415610f6d57610f6c610f78565b5b600182019050919050565b7f4e487b7100000000000000000000000000000000000000000000000000000000600052601160045260246000fd5b7f4e487b7100000000000000000000000000000000000000000000000000000000600052601260045260246000fd5b7f4e6f7420656e6f75676820657468657220746f20636f766572206974656d206160008201527f6e64206d61726b65742066656500000000000000000000000000000000000000602082015250565b7f5072696365206d7573742062652067726561746572207468616e207a65726f00600082015250565b7f4974656d20646f65736e74206578697374000000000000000000000000000000600082015250565b7f43616e206e6f742062757920796f7572206f776e206e66740000000000000000600082015250565b7f5265656e7472616e637947756172643a207265656e7472616e742063616c6c00600082015250565b7f4974656d20616c726561647920736f6c64000000000000000000000000000000600082015250565b6110fb81610ecf565b811461110657600080fd5b50565b61111281610f01565b811461111d57600080fd5b5056fea26469706673582212201308cbdbd8a823c8fd64ff2571302bcb0f905a33e3af1987d7b80a430680781b64736f6c63430008040033",
  "linkReferences": {},
  "deployedLinkReferences": {}
}